S0170000456D62656464656453797374656D732E737265630B
S113000045C0000060C000005EC000005CC000008D
S11300105AC0000058C0000056C0000054C0000080
S113002052C0000050C000004EC000004CC0000090
S11300304AC0000048C0000046C0000044C00000A0
S11300403FC4000040C000003EC000003CC00000AF
S11300503AC0000038C0000036C0000034C00000C0
S113006032C0000030C000002EC000002CC00000D0
S11300702AC0000028C0000026C0000024C00000E0
S113008022C0000020C000001EC0000011241FBEBA
S1130090CFEFD0E4DEBFCDBF11E0A0E0B1E0EAEDE8
S11300A0F9E000E00BBF02C007900D92AE30B1073B
S11300B0D9F721E0AEE0B1E001C01D92A431B2074E
S11300C0E1F7C1D188C49CCFCF93DF931F92CDB702
S11300D0DEB7898384E290E02FEFFC01208385E280
S11300E090E0FC0110828981882391F08AE290E0FB
S11300F02AE230E0F90120812F61FC0120838BE2A8
S113010090E02BE230E0F9012081207EFC01208385
S113011000000F90DF91CF910895CF93DF931F924A
S1130120CDB7DEB789838BE290E02BE230E0F901B2
S11301302081622F2981422F50E021E030E002C06B
S1130140220F331F4A95E2F7262BFC01208300007F
S11301500F90DF91CF910895CF93DF931F92CDB786
S1130160DEB789838BE290E02BE230E0F901208155
S1130170622F2981422F50E021E030E002C0220F9B
S1130180331F4A95E2F720952623FC0120830000C3
S11301900F90DF91CF910895CF93DF93CDB7DEB762
S11301A085E290E025E230E0F90120812068FC013D
S11301B020830000DF91CF910895CF93DF93CDB7D3
S11301C0DEB785E290E025E230E0F90120812F7767
S11301D0FC0120830000DF91CF910895CF93DF933A
S11301E0CDB7DEB785E290E025E230E0F901208169
S11301F02064FC0120830000DF91CF910895CF9308
S1130200DF93CDB7DEB785E290E025E230E0F90177
S113021020812F7BFC0120830000DF91CF91089582
S1130220CF93DF93CDB7DEB785E290E025E230E0EF
S1130230F90120812062FC0120830000DF91CF912D
S11302400895CF93DF93CDB7DEB785E290E025E242
S113025030E0F90120812F7DFC0120830000DF9133
S1130260CF910895CF93DF93CDB7DEB785E290E0C9
S113027025E230E0F90120812061FC0120830000A7
S1130280DF91CF910895CF93DF93CDB7DEB785E2A9
S113029090E025E230E0F90120812F7EFC012083EB
S11302A00000DF91CF910895CF93DF93CDB7DEB7F0
S11302B085E290E025E230E0F90120812860FC012C
S11302C020830000DF91CF910895CF93DF93CDB7C2
S11302D0DEB785E290E025E230E0F9012081277F56
S11302E0FC0120830000DF91CF910895CF93DF9329
S11302F0CDB7DEB785E290E025E230E0F901208158
S11303002460FC0120830000DF91CF910895CF93F6
S1130310DF93CDB7DEB785E290E025E230E0F90166
S113032020812B7FFC0120830000DF91CF91089571
S1130330CF93DF93CDB7DEB785E290E025E230E0DE
S1130340F90120812260FC0120830000DF91CF911C
S11303500895CF93DF93CDB7DEB785E290E025E231
S113036030E0F90120812D7FFC0120830000DF9122
S1130370CF910895CF93DF93CDB7DEB785E290E0B8
S113038025E230E0F90120812160FC012083000096
S1130390DF91CF910895CF93DF93CDB7DEB785E298
S11303A090E025E230E0F90120812E7FFC012083DA
S11303B00000DF91CF910895CF93DF93CDB7DEB7DF
S11303C087E290E027E230E0F90120812B7FFC01F5
S11303D020838AE290E02AE230E0F90120812F7143
S11303E0FC01208388E290E028E230E0F9012081DA
S11303F02460FC0120838BE290E02BE230E0F901E1
S11304002081206EFC0120830000DF91CF910895AC
S1130410CF93DF9300D0CDB7DEB789E290E0FC0143
S11304208081882F90E09A83898389819A8180785A
S11304309927892B11F481E001C080E00F900F907F
S1130440DF91CF910895CF93DF9300D000D0CDB743
S1130450DEB780E039DEB0DF80E187D180E895E265
S11304604FD2789419821B821A8281E08C8381E0B6
S113047091E06AD280E001D0FDCFCF93DF931F9249
S1130480CDB7DEB7898380910E01882F90E082304A
S1130490910509F494C08330910534F4009781F0F8
S11304A0019709F45AC05CC18530910509F4EBC089
S11304B08630910509F419C1049709F4B2C050C1FA
S11304C08981882381F080E090E046DE81E090E03D
S11304D043DE82E090E021DE83E090E01EDE84E0F3
S11304E090E03ADE08C08BDEACDECDDEEEDEFEDE72
S11304F01FDF52DE50DFD0D19C0180910F0190911B
S11305001001A901481B590BCA018033954740F0DB
S1130510C3D19093100180930F0181E08093000177
S113052077DF892B19F081E080931101809100011C
S1130530882309F40AC180911101882309F405C1B3
S11305401092000110921101A7D190931001809391
S11305500F0181E080930E01F8C08981882381F026
S113056080E090E0F9DD81E090E0D7DD82E090E08A
S1130570F3DD83E090E0D1DD84E090E0EDDD08C0C0
S11305803EDE5FDE6FDE90DEC2DEE3DE05DE03DF2D
S113059083D19C0180910F0190911001A901481B06
S11305A0590BCA018838934108F4D1C075D190938E
S11305B0100180930F0182E080930E01C8C08981ED
S11305C0882381F080E090E0A8DD81E090E0C4DD44
S11305D082E090E0C1DD83E090E09FDD84E090E084
S11305E0BBDD08C0FBDD1CDE4EDE6FDE90DEB1DE5F
S11305F0D3DDD1DE51D19C0180910F019091100186
S1130600A901481B590BCA018838934108F4A1C0B9
S113061043D19093100180930F0184E080930E01E5
S113062098C08981882381F080E090E076DD81E0C4
S113063090E092DD82E090E08FDD83E090E08CDD5D
S113064084E090E06ADD08C0C9DDEADD1CDE3DDE41
S11306505EDE7FDEB2DD8EDE1FD19C0180910F0154
S113066090911001A901481B590BCA018033954789
S113067008F471C011D19093100180930F0185E0AB
S113068080930E0168C08981882381F080E090E026
S113069044DD81E090E060DD82E090E05DDD83E0B8
S11306A090E03BDD84E090E057DD08C097DDB8DDE5
S11306B0EADD0BDE2CDE4DDE6FDD6DDEEDD09C0160
S11306C080910F0190911001A901481B590BCA0197
S11306D08838934108F441C0DFD09093100180938F
S11306E00F0186E080930E0138C08981882381F050
S11306F080E090E012DD81E090E00FDD82E090E0A8
S11307002BDD83E090E009DD84E090E025DD08C086
S113071065DD86DDA7DDC8DDFADD1BDE3DDD3BDE04
S1130720BBD09C0180910F0190911001A901481B3D
S1130730590BCA018838934190F0AED090931001C0
S113074080930F0110920E010AC0000009C000003E
S113075007C0000005C0000003C0000001C0000085
S113076000000F90DF91CF910895CF93DF931F92F4
S1130770CDB7DEB789838981882F90E005D000004A
S11307800F90DF91CF910895CF93DF931F92CDB750
S1130790DEB7898385E490E025E430E0F901208127
S11307A0277FFC01208384E490E024E430E0F90115
S11307B020812260FC01208384E490E024E430E082
S11307C0F90120812E7FFC0120838981882F90E00C
S11307D0409709F587E490E029EFFC01208385E444
S11307E090E025E430E0F90120812B7FFC01208397
S11307F085E490E025E430E0F90120812260FC01E9
S1130800208385E490E025E430E0F9012081216033
S1130810FC01208321C087E490E02CE7FC012083C5
S113082085E490E025E430E0F90120812B7FFC0190
S1130830208385E490E025E430E0F9012081226002
S1130840FC01208385E490E025E430E0F901208177
S11308502E7FFC01208300008EE690E02EE630E03F
S1130860F90120812B7FFC0120838EE690E02EE6A7
S113087030E0F90120812260FC0120838EE690E0C3
S11308802EE630E0F90120812E7FFC012083000058
S11308900F90DF91CF910895CF93DF9300D0CDB720
S11308A0DEB7F89480911201909113019A838983A1
S11308B0789489819A810F900F90DF91CF91089558
S11308C01F920F9200905F000F9211248F939F93B9
S11308D0CF93DF93CDB7DEB78091120190911301CE
S11308E0019690931301809312010000DF91CF9140
S11308F09F918F910F9000925F000F901F90189519
S1130900CF93DF9300D0CDB7DEB79A83898385EC8C
S113091090E029813A81232F3327FC01208384EC42
S113092090E02981FC01208382EC90E026E0FC0128
S1130930208381EC90E028E1FC01208300000F90EB
S11309400F90DF91CF910895CF93DF9300D000D023
S113095000D0CDB7DEB79E838D838D819E8132D04A
S11309609C838B831A8219821CC0000080EC90E067
S1130970FC018081882F90E080729927892BB1F344
S113098086EC90E029813A814D815E81240F351FE8
S1130990F9012081FC01208389819A8101969A833F
S11309A0898329813A818B819C8182179307ECF298
S11309B0000026960FB6F894DEBF0FBECDBFDF91C0
S11309C0CF910895FC0101900020E9F7809590955E
S10D09D08E0F9F1F0895F894FFCFC7
S11109DA0148616C6C6F2057656C742121001C
S9030000FC
