S0170000456D62656464656453797374656D732E737265630B
S113000045C0000061C000005FC000005DC000008A
S11300105BC0000059C0000057C0000055C000007C
S113002053C0000051C000004FC000004DC000008C
S11300304BC0000049C0000047C0000045C000009C
S11300407FC7000041C000003FC000003DC0000069
S11300503BC0000039C0000037C0000035C00000BC
S113006033C0000031C000002FC000002DC00000CC
S11300702BC0000029C0000027C0000025C00000DC
S113008023C0000021C000001FC0000011241FBEB7
S1130090CFEFD0E4DEBFCDBF11E0A0E0B1E0ECE9EA
S11300A0F1E100E00BBF02C007900D92A030B10750
S11300B0D9F721E0A0E0B1E001C01D92A231B2075E
S11300C0E1F765D10C94CC089BCFCF93DF931F92BB
S11300D0CDB7DEB7898384E290E02FEFFC01208363
S11300E085E290E0FC0110828981882391F08AE204
S11300F090E02AE230E0F90120812F61FC012083A5
S11301008BE290E02BE230E0F9012081207EFC01BB
S1130110208300000F90DF91CF910895CF93DF9358
S1130120CDB7DEB785E290E025E230E0F901208129
S11301302068FC0120830000DF91CF910895CF93C4
S1130140DF93CDB7DEB785E290E025E230E0F90138
S113015020812F77FC0120830000DF91CF91089547
S1130160CF93DF93CDB7DEB785E290E025E230E0B0
S1130170F90120812064FC0120830000DF91CF91EC
S11301800895CF93DF93CDB7DEB785E290E025E203
S113019030E0F90120812F7BFC0120830000DF91F6
S11301A0CF910895CF93DF93CDB7DEB785E290E08A
S11301B025E230E0F90120812062FC012083000067
S11301C0DF91CF910895CF93DF93CDB7DEB785E26A
S11301D090E025E230E0F90120812F7DFC012083AD
S11301E00000DF91CF910895CF93DF93CDB7DEB7B1
S11301F085E290E025E230E0F90120812061FC01F4
S113020020830000DF91CF910895CF93DF93CDB782
S1130210DEB785E290E025E230E0F90120812F7E0F
S1130220FC0120830000DF91CF910895CF93DF93E9
S1130230CDB7DEB785E290E025E230E0F901208118
S11302402860FC0120830000DF91CF910895CF93B3
S1130250DF93CDB7DEB785E290E025E230E0F90127
S113026020812160FC0120830000DF91CF9108955B
S1130270CF93DF93CDB7DEB787E290E027E230E09B
S1130280F90120812B7FFC0120838AE290E02AE29D
S113029030E0F90120812F71FC01208388E290E095
S11302A028E230E0F90120812460FC0120838BE204
S11302B090E02BE230E0F9012081206EFC012083E4
S11302C00000DF91CF910895CF93DF9300D0CDB795
S11302D0DEB789E290E0FC018081882F90E09A8368
S11302E0898389819A8180789927892B11F481E007
S11302F001C080E00F900F90DF91CF910895CF93CC
S1130300DF931F92CDB7DEB789E290E0FC018081D4
S113031089838981882F90E080749927892B11F42F
S113032081E001C080E00F90DF91CF910895CF93D9
S1130330DF931F92CDB7DEB789E290E0FC018081A4
S113034089838981882F90E080729927892B11F401
S113035081E001C080E00F90DF91CF910895CF93A9
S1130360DF931F92CDB7DEB786E290E0FC01808177
S113037089838981882F90E084709927892B11F4CF
S113038081E001C080E00F90DF91CF910895CF9379
S1130390DF9300D000D0CDB7DEB780E096DE68DF13
S11303A080E123D5789419821B821A8281E08C83A0
S11303B001D0FECF0F931F93CF93DF93CDB7DEB75A
S11303C0C455D1090FB6F894DEBF0FBECDBF8091DE
S11303D0020190910301892B09F016C29FDE04DF0C
S11303E025DF35DF71DF892B09F47EC081E090E0E1
S11303F0909303018093020185E290E0FC01108256
S11304008DDE80E090E0AAEFB3E48D8B9E8BAF8B02
S1130410B88F20E030E04AE755E46D897E898F8902
S1130420988D2FD6DC01CB01898F9A8FAB8FBC8F2F
S113043020E030E040E85FE3698D7A8D8B8D9C8D00
S11304409FD588232CF481E090E09E8F8D8F3BC054
S113045020E03FEF4FE757E4698D7A8D8B8D9C8DBB
S11304600CD618163CF520E030E040E251E46D89EA
S11304707E898F89988D05D6DC01CB01BC01CD0125
S113048083D5DC01CB019E8F8D8F0FC080E991E075
S113049098A38F8F8F8D98A10197F1F798A38F8FD1
S11304A08D8D9E8D01979E8F8D8F8D8D9E8D892B29
S11304B069F713C0698D7A8D8B8D9C8D65D5DC01B0
S11304C0CB019E8F8D8F8D8D9E8D9AA389A389A13B
S11304D09AA10197F1F79AA389A331DE1DD59093D0
S11304E001018093000129C30ADF892B09F47EC02E
S11304F082E090E0909303018093020185E290E012
S1130500FC0110822DDE80E090E0AAEFB3E4898341
S11305109A83AB83BC8320E030E04AE755E46981E9
S11305207A818B819C81ADD5DC01CB018BA39CA30B
S1130530ADA3BEA320E030E040E85FE36BA17CA163
S11305408DA19EA11DD588232CF481E090E098A76D
S11305508FA33BC020E03FEF4FE757E46BA17CA1A2
S11305608DA19EA18AD518163CF520E030E040E22A
S113057051E469817A818B819C8183D5DC01CB0133
S1130580BC01CD0101D5DC01CB0198A78FA30FC01D
S113059080E991E09AA789A789A59AA50197F1F71F
S11305A09AA789A78FA198A5019798A78FA38FA130
S11305B098A5892B69F713C06BA17CA18DA19EA17D
S11305C0E3D4DC01CB0198A78FA38FA198A59CA7A6
S11305D08BA78BA59CA50197F1F79CA78BA7D1DDD1
S11305E09BD49093010180930001A7C2A0DE892BC4
S11305F009F47EC083E090E09093030180930201AC
S113060085E290E0FC011082CDDD80E090E0AAEF6D
S1130610B3E48D839E83AF83B88720E030E04AE75C
S113062055E46D817E818F8198852BD5DC01CB01CA
S11306308DA79EA7AFA7B8AB20E030E040E85FE30A
S11306406DA57EA58FA598A99BD488232CF481E061
S113065090E09AAB89AB3BC020E03FEF4FE757E413
S11306606DA57EA58FA598A908D518163CF520E0A0
S113067030E040E251E46D817E818F81988501D51F
S1130680DC01CB01BC01CD017FD4DC01CB019AABF1
S113069089AB0FC080E991E09CAB8BAB8BA99CA983
S11306A00197F1F79CAB8BAB89A99AA901979AABF7
S11306B089AB89A99AA9892B69F713C06DA57EA571
S11306C08FA598A961D4DC01CB019AAB89AB89A928
S11306D09AA99EAB8DAB8DA99EA90197F1F79EAB0C
S11306E08DAB71DD19D4909301018093000125C273
S11306F036DE892B09F421C284E090E09093030153
S11307008093020185E290E0FC0110826DDD80E0BF
S113071090E0AAEFB3E489879A87AB87BC8720E08F
S113072030E04AE755E469857A858B859C85A9D4B0
S1130730DC01CB018FAB98AFA9AFBAAF20E030E0BA
S113074040E85FE36FA978AD89AD9AAD19D48823E9
S11307502CF481E090E09CAF8BAF3BC020E03FEFF6
S11307604FE757E46FA978AD89AD9AAD86D41816D2
S11307703CF520E030E040E251E469857A858B85E0
S11307809C857FD4DC01CB01BC01CD01FDD3DC0110
S1130790CB019CAF8BAF0FC080E991E09EAF8DAFD2
S11307A08DAD9EAD0197F1F79EAF8DAF8BAD9CAD36
S11307B001979CAF8BAF8BAD9CAD892B69F71DC0A6
S11307C06FA978AD89AD9AADDFD3DC01CB019CAFC5
S11307D08BAF2BAD3CADCE01CF96FC013183208392
S11307E0CE01CF96FC01808191810197F1F79E01A2
S11307F0215C3F4FF9019183808307DD8DD3909372
S113080001018093000199C15FDD892B09F475C151
S113081076DD892B09F471C1109203011092020153
S113082080E090E0AAE7B4E4898B9A8BAB8BBC8B15
S11308308E01055B1F4F20E030E04AE755E46989EB
S11308407A898B899C891DD4DC01CB01F8018083D2
S11308509183A283B383CE01855B9F4F20E030E078
S113086040E85FE3FC01608171818281938188D3D8
S113087088234CF4CE01815B9F4F21E030E0FC01E2
S11308803183208365C0CE01855B9F4F20E03FEF1D
S11308904FE757E4FC016081718182819381EDD33C
S11308A018160CF044C020E030E040E251E46989BD
S11308B07A898B899C89E5D3DC01CB018E01015BAC
S11308C01F4FBC01CD0160D3DC01CB01F801918342
S11308D0808324C0CE018F5A9F4F20E931E0FC0170
S11308E031832083CE018F5A9F4FFC0180819181F7
S11308F00197F1F79E012F5A3F4FF90191838083AD
S1130900CE01815B9F4F9E01215B3F4FF901208106
S1130910318121503109FC0131832083CE01815B77
S11309209F4FFC0180819181892BA1F62BC08E0100
S1130930015B1F4FCE01855B9F4FFC01608171817C
S11309408281938121D3DC01CB01F80191838083DF
S1130950CE018D5A9F4F9E01215B3F4FF9012081AB
S11309603181FC0131832083CE018D5A9F4FFC01DC
S1130970808191810197F1F79E012D5A3F4FF90132
S11309809183808385E290E02FEFFC01208380E057
S113099090E0AAEFB3E48D879E87AF87B88B8E0172
S11309A00F5B1F4F20E030E04AE755E46D857E85FC
S11309B08F85988966D3DC01CB01F801808391830C
S11309C0A283B383CE018F5B9F4F20E030E040E8E9
S11309D05FE3FC016081718182819381D1D288239C
S11309E04CF4CE018B5B9F4F21E030E0FC0131835E
S11309F0208365C0CE018F5B9F4F20E03FEF4FE720
S1130A0057E4FC01608171818281938136D3181689
S1130A100CF044C020E030E040E251E46D857E8576
S1130A208F8598892ED3DC01CB018E010B5B1F4F80
S1130A30BC01CD01A9D2DC01CB01F80191838083F3
S1130A4024C0CE01895B9F4F20E931E0FC01318352
S1130A502083CE01895B9F4FFC01808191810197A6
S1130A60F1F79E01295B3F4FF90191838083CE0109
S1130A708B5B9F4F9E012B5B3F4FF901208131819E
S1130A8021503109FC0131832083CE018B5B9F4FC0
S1130A90FC0180819181892BA1F62BC08E010B5B17
S1130AA01F4FCE018F5B9F4FFC016081718182815A
S1130AB093816AD2DC01CB01F80191838083CE015A
S1130AC0875B9F4F9E012B5B3F4FF9012081318152
S1130AD0FC0131832083CE01875B9F4FFC01808121
S1130AE091810197F1F79E01275B3F4FF9019183B3
S1130AF0808385E290E0FC01108280910201909154
S1130B0003018230910571F0833091051CF4019743
S1130B1039F00EC08330910539F0049739F008C0DC
S1130B2044D10BC00ED109C015D007C08DD005C06B
S1130B30109203011092020100000000CC5ADF4F12
S1130B400FB6F894DEBF0FBECDBFDF91CF911F91DA
S1130B500F910895CF93DF9300D0CDB7DEB7DCD1EA
S1130B609C018091000190910101A901481B590B3E
S1130B70CA01883E934008F461C0CED1909301012C
S1130B80809300018091040190910501892BF1F07B
S1130B908091060190910701029774F41092050167
S1130BA0109204018091060190910701019690939F
S1130BB007018093060129C08091060190910701E5
S1130BC0019790930701809306011FC0809106014D
S1130BD090910701089784F081E090E090930501DB
S1130BE080930401809106019091070101979093ED
S1130BF007018093060109C08091060190910701C5
S1130C000196909307018093060181E090E09A8316
S1130C10898380910601909107019C01215031093B
S1130C2089819A8102C0880F991F2A95E2F79A83D5
S1130C30898385E290E02981FC01208300000F90E4
S1130C400F90DF91CF910895CF93DF9300D000D020
S1130C50CDB7DEB78091080190910901892BC9F4C1
S1130C6033DB892BB1F080910A0190910B01099734
S1130C704CF480910A0190910B01019690930B0121
S1130C8080930A0181E090E0909309018093080128
S1130C901FC080910C0190910D01892BC9F42FDBA9
S1130CA0892BB1F080910A0190910B011816190655
S1130CB04CF480910A0190910B01019790930B01E0
S1130CC080930A0181E090E090930D0180930C01E0
S1130CD0FBDA892B21F410920901109208010FDB31
S1130CE0892B21F410920D0110920C011A821982A1
S1130CF01C821B8210C089819A81880F991F9A8354
S1130D00898389819A8101969A8389838B819C81C5
S1130D1001969C838B8380910A0190910B012B8116
S1130D203C81281739073CF385E290E02981FC01D6
S1130D30208300000F900F900F900F90DF91CF91C0
S1130D400895CF93DF93CDB7DEB7E6D09C018091B1
S1130D50000190910101A901481B590BCA01843F6C
S1130D609140F8F0D9D090930101809300018091D3
S1130D700E0190910F01892B49F010920F011092EE
S1130D800E0185E290E0FC0110820BC081E090E04E
S1130D9090930F0180930E0185E290E02FEFFC0108
S1130DA020830000DF91CF910895CF93DF93CDB7D7
S1130DB0DEB78ADA892B11F0B1D901C0C0D99FDA24
S1130DC0892B11F0CDD901C0DCD9B1DA892B11F00E
S1130DD0E9D901C0F8D9C3DA892B11F005DA01C0C9
S1130DE014DA0000DF91CF910895CF93DF931F921F
S1130DF0CDB7DEB789838981882F90E005D00000C4
S1130E000F90DF91CF910895CF93DF931F92CDB7C9
S1130E10DEB7898385E490E025E430E0F9012081A0
S1130E20277FFC01208384E490E024E430E0F9018E
S1130E3020812260FC01208384E490E024E430E0FB
S1130E40F90120812E7FFC0120838981882F90E085
S1130E50409709F587E490E029EFFC01208385E4BD
S1130E6090E025E430E0F90120812B7FFC01208310
S1130E7085E490E025E430E0F90120812260FC0162
S1130E80208385E490E025E430E0F90120812160AD
S1130E90FC01208321C087E490E02CE7FC0120833F
S1130EA085E490E025E430E0F90120812B7FFC010A
S1130EB0208385E490E025E430E0F901208122607C
S1130EC0FC01208385E490E025E430E0F9012081F1
S1130ED02E7FFC01208300008EE690E02EE630E0B9
S1130EE0F90120812B7FFC0120838EE690E02EE621
S1130EF030E0F90120812260FC0120838EE690E03D
S1130F002EE630E0F90120812E7FFC0120830000D1
S1130F100F90DF91CF910895CF93DF9300D0CDB799
S1130F20DEB7F89480911001909111019A8389831E
S1130F30789489819A810F900F90DF91CF910895D1
S1130F401F920F9200905F000F9211248F939F9332
S1130F50CF93DF93CDB7DEB780911001909111014B
S1130F60019690931101809310010000DF91CF91BD
S1130F709F918F910F9000925F000F901F90189592
S1130F802FD008F481E0089557D088F09F5790F04F
S1130F90B92F9927B751A0F0D1F0660F771F881F9A
S1130FA0991F1AF0BA95C9F712C0B13081F05ED01A
S1130FB0B1E008955BC0672F782F8827B85F39F0B8
S1130FC0B93FCCF3869577956795B395D9F73EF4F9
S1130FD090958095709561957F4F8F4F9F4F0895A1
S1130FE0990F0008550FAA0BE0E8FEEF1616170636
S1130FF0E807F907C0F012161306E407F50798F09E
S1131000621B730B840B950B39F40A2661F0232BB6
S1131010242B252B21F408950A2609F4A140A69532
S11310208FEF811D811D089557FD9058440F551F62
S113103059F05F3F71F04795880F97FB991F61F056
S11310409F3F79F087950895121613061406551FCD
S1131050F2CF4695F1DF08C0161617061806991F39
S1131060F1CF86957105610508940895E894BB272E
S113107066277727CB0197F90895B2DF08F48FEF3D
S113108008950BD078C069D028F06ED018F095235D
S113109009F05AC05FC01124EACFC6DFA0F3959FC0
S11310A0D1F3950F50E0551F629FF001729FBB274B
S11310B0F00DB11D639FAA27F00DB11DAA1F649FF7
S11310C06627B00DA11D661F829F2227B00DA11DAA
S11310D0621F739FB00DA11D621F839FA00D611D30
S11310E0221F749F3327A00D611D231F849F600D51
S11310F0211D822F762F6A2F11249F5750408AF08A
S1131100E1F088234AF0EE0FFF1FBB1F661F771F15
S1131110881F91505040A9F79E3F510570F014C0AC
S1131120A6CF5F3FECF3983EDCF386957795679501
S1131130B795F795E7959F5FC1F7FE2B880F911D33
S11311409695879597F9089597F99F6780E870E0D9
S113115060E008959FEF80EC089500240A94161629
S1131160170618060906089500240A941216130691
S1131170140605060895092E0394000C11F488231F
S113118052F0BB0F40F4BF2B11F460FF04C06F5F3B
S10F11907F4F8F4F9F4F0895F894FFCFBE
S9030000FC
