S0170000456D62656464656453797374656D732E737265630B
S113000045C0000061C000005FC000005DC000008A
S11300105BC0000059C0000057C0000055C000007C
S113002053C0000082C400004FC000004DC0000057
S11300304BC0000049C0000047C0000045C000009C
S113004054C4000041C000003FC000003DC0000097
S1130050BFC6000039C000007CC6000035C00000E7
S1130060FFC0000031C000002FC000002DC0000000
S11300702BC0000029C0000027C0000025C00000DC
S113008023C0000021C000001FC0000011241FBEB7
S1130090CFEFD0E4DEBFCDBF11E0A0E0B1E0E6E4F5
S11300A0F6E100E00BBF02C007900D92A631B10744
S11300B0D9F725E0A6E1B1E001C01D92A334B2074F
S11300C0E1F753D20C94210B9BCFCF93DF93CDB7A1
S11300D0DEB78AE790E02AE730E0F9012081276063
S11300E0FC0120838AE790E02AE730E0F9012081CF
S11300F0286CFC0120830000DF91CF910895CF93F9
S1130100DF9300D000D000D0CDB7DEB719821A82B9
S11301101B821C821E821D821DC08D819E81880FC0
S1130120991F8A5E9E4FFC0180819181CC01A0E0E1
S1130130B0E029813A814B815C81820F931FA41F17
S1130140B51F89839A83AB83BC838D819E8101967D
S11301509E838D838D819E810897FCF289819A818B
S1130160AB81BC81689412F8B695A795979587954D
S11301701694D1F789839A83AB83BC8389819A814E
S1130180092E000CAA0BBB0BBC01CD0187D6DC01E8
S1130190CB0125E732E04AEF5EE3BC01CD01E2D6B4
S11301A0DC01CB01BC01CD014BD6DC01CB01898341
S11301B09A83AB83BC8389819A8126960FB6F8947F
S11301C0DEBF0FBECDBFDF91CF910895CF93DF93F4
S11301D000D000D000D0CDB7DEB719821A821B82BE
S11301E01C821E821D821DC08D819E81880F991FD5
S11301F08A5D9E4FFC0180819181CC01A0E0B0E03A
S113020029813A814B815C81820F931FA41FB51F02
S113021089839A83AB83BC838D819E8101969E835F
S11302208D838D819E810897FCF289819A81AB81AF
S1130230BC81689412F8B695A795979587951694FE
S1130240D1F789839A83AB83BC8389819A8126966B
S11302500FB6F894DEBF0FBECDBFDF91CF910895E6
S11302601F920F9200905F000F92112400905B0088
S11302700F922F933F938F939F93EF93FF93CF937B
S1130280DF9300D0CDB7DEB788E790E0FC01808132
S113029091819A8389838CE790E0FC018081882F87
S11302A090E081709927009719F00197B9F163C024
S11302B0809100018A3219F4109200015CC080918F
S11302C0000180910001883098F480910001882F0A
S11302D090E0880F991F8A5E9E4F29813A81FC0124
S11302E031832083809100018F5F8093000143C09C
S11302F08CE790E02CE730E0F9012081217EFC01BD
S113030020838CE790E02CE730E0F9012081216024
S1130310FC0120838AE2809300012DC080910101B9
S11303208A3219F41092010125C080910101809153
S11303300101883098F480910101882F90E0880FA2
S1130340991F8A5D9E4F29813A81FC013183208364
S1130350809101018F5F809301010CC08CE790E0D4
S11303602CE730E0F9012081207EFC0120838AE221
S11303708093010100008AE790E02AE730E0F90168
S113038020812864FC01208300000F900F90DF91EE
S1130390CF91FF91EF919F918F913F912F910F906A
S11303A000925B000F9000925F000F901F901895D1
S11303B0CF93DF931F92CDB7DEB7898384E290E0B9
S11303C02FEFFC01208385E290E0FC0110828981FB
S11303D0882391F08AE290E02AE230E0F90120815A
S11303E02F61FC0120838BE290E02BE230E0F901E5
S11303F02081207EFC01208300000F90DF91CF91AB
S11304000895CF93DF93CDB7DEB785E290E025E280
S113041030E0F90120812068FC0120830000DF9195
S1130420CF910895CF93DF93CDB7DEB785E290E007
S113043025E230E0F90120812F77FC0120830000C0
S1130440DF91CF910895CF93DF93CDB7DEB785E2E7
S113045090E025E230E0F90120812064FC01208352
S11304600000DF91CF910895CF93DF93CDB7DEB72E
S113047085E290E025E230E0F90120812F7BFC0148
S113048020830000DF91CF910895CF93DF93CDB700
S1130490DEB785E290E025E230E0F90120812260B8
S11304A0FC0120830000DF91CF910895CF93DF9367
S11304B0CDB7DEB785E290E025E230E0F901208196
S11304C02D7FFC0120830000DF91CF910895CF930D
S11304D0DF93CDB7DEB785E290E025E230E0F901A5
S11304E020812160FC0120830000DF91CF910895D9
S11304F0CF93DF93CDB7DEB785E290E025E230E01D
S1130500F90120812E7FFC0120830000DF91CF912F
S11305100895CF93DF93CDB7DEB787E290E027E26B
S113052030E0F90120812B7FFC0120838AE290E0F6
S11305302AE230E0F90120812F71FC01208388E256
S113054090E028E230E0F90120812460FC0120835E
S11305508BE290E02BE230E0F9012081206EFC0177
S113056020830000DF91CF910895CF93DF93CDB71F
S1130570DEB7CB57D1090FB6F894DEBF0FBECDBF9F
S1130580F89480E015DFC5DF80E17ED180E1F4D00E
S11305906BD39BDD789485D19A83898322E3CE0142
S11305A00996FC01322F11923A95E9F71C821B82BD
S11305B01E821D8276D19C0189819A81A901481BE2
S11305C0590BCA01843F9140A8F36BD19A83898364
S11305D08B819C81892B39F414DF46DF81E090E024
S11305E09C838B8304C01EDF2EDF1C821B8287DD6D
S11305F098878F83EBDD9E838D83F89488858F9312
S11306008F818F9382E091E0892F8F9382E091E034
S11306108F93CE01CB96292F2F938F9337D50F909D
S11306200F900F900F900F900F90CE01CB9637D371
S11306308E818F938D818F938CE091E0892F8F939E
S11306408CE091E08F93CE01CB96292F2F938F933B
S11306501DD50F900F900F900F900F900F90CE011B
S1130660CB961DD37894A6CFCF93DF931F92CDB7AB
S1130670DEB7898385E490E025E430E0F901208148
S1130680277FFC01208384E490E024E430E0F90136
S113069020812260FC01208384E490E024E430E0A3
S11306A0F90120812E7FFC0120838981882F90E02D
S11306B0409709F587E490E029EFFC01208385E465
S11306C090E025E430E0F90120812B7FFC012083B8
S11306D085E490E025E430E0F90120812260FC010A
S11306E0208385E490E025E430E0F9012081216055
S11306F0FC01208321C087E490E02CE7FC012083E7
S113070085E490E025E430E0F90120812B7FFC01B1
S1130710208385E490E025E430E0F9012081226023
S1130720FC01208385E490E025E430E0F901208198
S11307302E7FFC01208300008EE690E02EE630E060
S1130740F90120812B7FFC0120838EE690E02EE6C8
S113075030E0F90120812260FC0120838EE690E0E4
S11307602EE630E0F90120812E7FFC012083000079
S11307700F90DF91CF910895CF93DF931F92CDB760
S1130780DEB7898381EB90E021EB30E0F901208131
S1130790277FFC01208380EB90E020EB30E0F9011F
S11307A020812260FC01208380EB90E020EB30E08C
S11307B0F90120812E7FFC0120838981882F90E01C
S11307C0409709F583EB90E029EFFC01208381EB4E
S11307D090E021EB30E0F90120812B7FFC012083A4
S11307E081EB90E021EB30E0F90120812260FC01F3
S11307F0208381EB90E021EB30E0F901208121603E
S1130800FC01208321C083EB90E02CE7FC012083D2
S113081081EB90E021EB30E0F90120812B7FFC019A
S1130820208381EB90E021EB30E0F901208122600C
S1130830FC01208381EB90E021EB30E0F901208181
S11308402E7FFC012083000080E790E020E730E069
S1130850F90120812B7FFC01208380E790E020E7D1
S113086030E0F90120812260FC01208380E790E0E0
S113087020E730E0F90120812E7FFC012083000075
S11308800F90DF91CF910895CF93DF931F92CDB74F
S1130890DEB789838981E8DE00000F90DF91CF9174
S11308A00895CF93DF9300D0CDB7DEB78EE690E006
S11308B02EE630E0F90120812D7FFC012083809118
S11308C03601909137019A8389838EE690E02EE673
S11308D030E0F90120812260FC01208389819A8122
S11308E00F900F90DF91CF9108951F920F92009077
S11308F05F000F9211248F939F93CF93DF93CDB713
S1130900DEB78091360190913701019690933701BB
S1130910809336010000DF91CF919F918F910F90CA
S113092000925F000F901F9018951F920F920090F5
S11309305F000F92112400905B000F922F933F935E
S11309404F935F936F937F938F939F93AF93BF93D3
S1130950EF93FF93CF93DF93CDB7DEB78091390147
S113096090913A01843F91409CF080913801882312
S113097031F48BDDBDDD81E08093380104C096DD68
S1130980A6DD1092380110923A011092390109C083
S11309908091390190913A01019690933A018093A4
S11309A039010000DF91CF91FF91EF91BF91AF9199
S11309B09F918F917F916F915F914F913F912F9173
S11309C00F9000925B000F9000925F000F901F90B9
S11309D01895CF93DF9300D01F92CDB7DEB78983EC
S11309E07B836A8381EC90E021EC30E0F901208183
S11309F02F7BFC01208381EC90E021EC30E0F901B5
S1130A0020812F77FC0120838A819B818E5F9D4FFB
S1130A10FC01808191819C012F5F3F4F8A819B81E2
S1130A209E5FFC01808191812817390791F08A81AA
S1130A309B819E5FFC0180819181892BF1F48A81E5
S1130A409B818E5F9D4FFC01808191818F3F9140FE
S1130A50A1F481EC90E021EC30E0F90120812064E4
S1130A60FC01208381EC90E021EC30E0F90120814D
S1130A702068FC01208381E043C08A819B818E5FD2
S1130A809D4FFC01808191812A813B81820F931FBC
S1130A902981FC0120838A819B818E5F9D4FFC010B
S1130AA0808191819C012F5F3F4F8A819B818E5F62
S1130AB09D4FFC01318320838A819B818E5F9D4FF2
S1130AC0FC01808191818115924038F08A819B815B
S1130AD08E5F9D4FFC011182108281EC90E021EC2D
S1130AE030E0F90120812064FC01208381EC90E056
S1130AF021EC30E0F90120812068FC01208380E0B2
S1130B000F900F900F90DF91CF910895CF93DF93C3
S1130B1000D000D0CDB7DEB79A8389837C836B8302
S1130B2081EC90E021EC30E0F90120812F7BFC0185
S1130B30208381EC90E021EC30E0F90120812F77D3
S1130B40FC0120838B819C819E5FFC01208131818B
S1130B508B819C818E5F9D4FFC0180819181281740
S1130B603907A1F481EC90E021EC30E0F901208117
S1130B702064FC01208381EC90E021EC30E0F90159
S1130B8020812068FC01208381E041C08B819C810D
S1130B909E5FFC01808191812B813C81820F931F98
S1130BA0FC01208189819A81FC0120838B819C81B5
S1130BB09E5FFC01808191819C012F5F3F4F8B815F
S1130BC09C819E5FFC01318320838B819C819E5F8D
S1130BD0FC01808191818115924030F08B819C8150
S1130BE09E5FFC011182108281EC90E021EC30E0E8
S1130BF0F90120812064FC01208381EC90E021EC48
S1130C0030E0F90120812068FC01208380E00F900E
S1130C100F900F900F90DF91CF910895CF93DF93B2
S1130C2000D0CDB7DEB787E690E09A83898385EC60
S1130C3090E029813A81232F3327FC01208384EC1F
S1130C4090E02981FC01208381EC90E028E1FC0103
S1130C50208382EC90E026E0FC01208300000F90CA
S1130C600F90DF91CF910895CF93DF93CDB7DEB787
S1130C70D5DF81EC90E021EC30E0F90120812064A3
S1130C80FC01208381EC90E021EC30E0F90120812B
S1130C902068FC0120830000DF91CF910895CF9359
S1130CA0DF93CDB7DEB729970FB6F894DEBF0FBE3A
S1130CB0CDBF9987888788859985DFD19E838D8369
S1130CC01A8219821C821B821CC08B819C812885FC
S1130CD03985820F931FFC0180816BE371E079DE1B
S1130CE0813051F48B819C819C012F5F3F4F3C8369
S1130CF02B839A8389830CC08B819C8101969C836E
S1130D008B832B813C818D819E8128173907ECF2DE
S1130D1080EC90E0FC018081882F90E0807299271C
S1130D20892B61F0CE0107966BE371E0EFDE882337
S1130D3029F486EC90E02F81FC01208389819A813B
S1130D4029960FB6F894DEBF0FBECDBFDF91CF91C9
S1130D5008951F920F9200905F000F92112400904B
S1130D605B000F922F933F934F935F936F937F9307
S1130D708F939F93AF93BF93EF93FF93CF93DF939F
S1130D801F92CDB7DEB76BE371E0CE010196BEDEF4
S1130D90882329F486EC90E02981FC01208300005B
S1130DA00F90DF91CF91FF91EF91BF91AF919F9100
S1130DB08F917F916F915F914F913F912F910F9000
S1130DC000925B000F9000925F000F901F901895A7
S1130DD01F920F9200905F000F92112400905B000D
S1130DE00F922F933F934F935F936F937F938F93C0
S1130DF09F93AF93BF93EF93FF93CF93DF93CDB7BD
S1130E00DEB786EC90E0FC0180816FE373E0E1DD06
S1130E100000DF91CF91FF91EF91BF91AF919F912E
S1130E208F917F916F915F914F913F912F910F908F
S1130E3000925B000F9000925F000F901F90189536
S1130E4070D088F09F5790F0B92F9927B751A0F030
S1130E50D1F0660F771F881F991F1AF0BA95C9F74A
S1130E6012C0B13081F077D0B1E0089574C0672F1B
S1130E70782F8827B85F39F0B93FCCF386957795FA
S1130E806795B395D9F73EF49095809570956195E3
S1130E907F4F8F4F9F4F0895E89409C097FB3EF40E
S1130EA090958095709561957F4F8F4F9F4F9923B3
S1130EB0A9F0F92F96E9BB279395F6958795779531
S1130EC06795B795F111F8CFFAF4BB0F11F460FFF1
S1130ED01BC06F5F7F4F8F4F9F4F16C0882311F049
S1130EE096E911C0772321F09EE8872F762F05C05D
S1130EF0662371F096E8862F70E060E02AF09A95F8
S1130F00660F771F881FDAF7880F9695879597F9EC
S1130F10089557FD9058440F551F59F05F3F71F0E5
S1130F204795880F97FB991F61F09F3F79F087954C
S1130F300895121613061406551FF2CF4695F1DFD5
S1130F4008C0161617061806991FF1CF8695710565
S1130F50610508940895E894BB2766277727CB0199
S1130F6097F908950BD078C069D028F06ED018F0A6
S1130F70952309F05AC05FC01124EECFCADFA0F355
S1130F80959FD1F3950F50E0551F629FF001729F1A
S1130F90BB27F00DB11D639FAA27F00DB11DAA1F39
S1130FA0649F6627B00DA11D661F829F2227B00D86
S1130FB0A11D621F739FB00DA11D621F839FA00D11
S1130FC0611D221F749F3327A00D611D231F849F61
S1130FD0600D211D822F762F6A2F11249F575040B8
S1130FE08AF0E1F088234AF0EE0FFF1FBB1F661F53
S1130FF0771F881F91505040A9F79E3F510570F00C
S113100014C0AACF5F3FECF3983EDCF38695779546
S11310106795B795F795E7959F5FC1F7FE2B880F06
S1131020911D9695879597F9089597F99F6780E89C
S113103070E060E008959FEF80EC089500240A9426
S11310401616170618060906089500240A9412169F
S11310501306140605060895092E0394000C11F4D2
S1131060882352F0BB0F40F4BF2B11F460FF04C07F
S11310706F5F7F4F8F4F9F4F0895FC0101900020B9
S1131080E9F7809590958E0F9F1F08950F931F93F6
S1131090CF93DF93CDB7DEB72E970FB6F894DEBFAC
S11310A00FBECDBF0D891E8986E08C831A83098308
S11310B08FEF9FE79E838D83AE01475E5F4F6F89FD
S11310C0788DCE01019610D0EF81F885E00FF11FE5
S11310D010822E960FB6F894DEBF0FBECDBFDF91FF
S11310E0CF911F910F9108952F923F924F925F924B
S11310F06F927F928F929F92AF92BF92CF92DF9224
S1131100EF92FF920F931F93CF93DF93CDB7DEB788
S11311102B970FB6F894DEBF0FBECDBF6C017B01D9
S11311208A01FC0117821682838181FFBFC1CE012F
S113113001963C01F6019381F70193FD859193FF9C
S113114081917F01882309F4ADC1853239F493FD7F
S1131150859193FF81917F01853221F4B60190E05E
S1131160D6D1E8CF912C212C312CFFE1F315D8F006
S11311708B3279F038F4803279F08332A1F4232D64
S113118020611DC08D3261F0803369F4232D21600C
S113119016C0832D8260382EE32DE4603E2E2AC0D3
S11311A0F32DF8601DC037FC2DC020ED280F2A3028
S11311B040F08E32B9F436FC75C1232D2064322EF2
S11311C019C036FE06C08AE0989E200D1124922E86
S11311D011C0EAE02E9E200D1124222EF32DF06280
S11311E03F2E08C08C3621F4832D8068382E02C02F
S11311F0883641F4F70193FD859193FF81917F0136
S11312008111B3CF982F9F7D9554933028F40C5FB0
S11312101F4F9FE399830DC0833631F0833771F0FC
S1131220833509F055C020C0F801808189830E5FA1
S11312301F4F88248394912C530112C02801F2E09B
S11312404F0E511CF801A080B18036FE03C0692DF9
S113125070E002C06FEF7FEFC5014ED14C018201F7
S1131260F32DFF773F2E15C0280122E0420E511CBA
S1131270F801A080B18036FE03C0692D70E002C081
S11312806FEF7FEFC5012DD14C01F32DF0683F2E98
S1131290820133FC19C0822D90E088169906A0F4CF
S11312A0B60180E290E033D12A94F5CFF50137FC02
S11312B0859137FE81915F01B60190E028D121101C
S11312C02A9421E0821A91088114910479F7E1C0EB
S11312D0843611F0893639F5F80137FE07C060818C
S11312E07181828193810C5F1F4F08C0608171817D
S11312F0072E000C880B990B0E5F1F4FF32DFF7602
S11313003F2E97FF09C090958095709561957F4F0A
S11313108F4F9F4FF0683F2E2AE030E0A30133D176
S1131320882E861844C0853731F4232D2F7EB22EA3
S11313302AE030E025C0932D997FB92E8F36C1F075
S113134018F4883579F0AEC0803719F0883721F069
S1131350A9C0E92FE061BE2EB4FE0DC0FB2DF460E0
S1131360BF2E09C034FE0AC0292F2660B22E06C043
S113137028E030E005C020E130E002C020E132E0A6
S1131380F801B7FE07C060817181828193810C5F8F
S11313901F4F06C06081718180E090E00E5F1F4F97
S11313A0A301F1D0882E8618FB2DFF773F2E36FE41
S11313B00DC0232D2E7FA22E891458F434FE0BC0A9
S11313C032FC09C0832D8E7EA82E05C0B82CA32C18
S11313D003C0B82C01C0B92CA4FE0FC0FE01E80D57
S11313E0F11D8081803321F49A2D997EA92E09C0A4
S11313F0A2FE06C0B394B39404C08A2D867809F083
S1131400B394A3FC10C0A0FE06C0B21480F4280C50
S1131410922C9B180DC0B21458F4B60180E290E0EF
S113142076D0B394F8CFB21418F42B1802C0982CC9
S1131430212CA4FE0FC0B60180E390E068D0A2FE88
S113144016C0A1FC03C088E790E002C088E590E0E4
S1131450B6010CC08A2D867851F0A1FE02C08BE241
S113146001C080E2A7FC8DE2B60190E050D089145F
S113147030F4B60180E390E04AD09A94F8CF8A948D
S1131480F301E80DF11D8081B60190E040D0811098
S1131490F6CF222009F44ECEB60180E290E037D098
S11314A02A94F7CFF6018681978102C08FEF9FEFD0
S11314B02B960FB6F894DEBF0FBECDBFDF91CF9150
S11314C01F910F91FF90EF90DF90CF90BF90AF905E
S11314D09F908F907F906F905F904F903F902F9050
S11314E00895FC010590615070400110D8F7809573
S11314F090958E0F9F1F0895FC01615070400190DC
S11315000110D8F7809590958E0F9F1F08950F9323
S11315101F93CF93DF93FB01238121FD03C08FEF42
S11315209FEF2CC022FF16C046815781248135814C
S11315304217530744F4A081B1819D012F5F3F4FAF
S1131540318320838C93268137812F5F3F4F3783EC
S1131550268314C08B01EC01FB010084F185E02D8E
S11315600995892BE1F6D80116968D919C911797D0
S1131570019617969C938E931697CE01DF91CF9187
S11315801F910F910895FA01AA27283051F12031B3
S113159081F1E8946F936E7F6E5F7F4F8F4F9F4F03
S11315A0AF4FB1E03ED0B4E03CD0670F781F891F45
S11315B09A1FA11D680F791F8A1F911DA11D6A0F13
S11315C0711D811D911DA11D20D009F468943F91C6
S11315D02AE0269F11243019305D3193DEF6CF01C5
S11315E00895462F4770405D4193B3E00FD0C9F78B
S11315F0F6CF462F4F70405D4A3318F0495D31FDF8
S11316004052419302D0A9F7EACFB4E0A69597954A
S1131610879577956795BA95C9F700976105710520
S113162008959B01AC010A2E06945795479537956A
S11316302795BA95C9F7620F731F841F951FA01DC4
S10916400895F894FFCFA9
S11316462A2A54656D703A2025640A00506F74691D
S10916563A2025640A009D
S9030000FC
