S0170000456D62656464656453797374656D732E737265630B
S113000045C0000061C000005FC000005DC000008A
S11300105BC0000059C0000057C0000055C000007C
S113002053C0000051C000004FC000004DC000008C
S11300304BC0000049C0000047C0000045C000009C
S11300400C94740841C000003FC000003DC0000093
S11300503BC0000039C0000037C0000035C00000BC
S113006033C0000031C000002FC000002DC00000CC
S11300702BC0000029C0000027C0000025C00000DC
S113008023C0000021C000001FC0000011241FBEB7
S1130090CFEFD0E4DEBFCDBF11E0A0E0B1E0E4E4F7
S11300A0F3E100E00BBF02C007900D92A030B1074E
S11300B0D9F721E0A0E0B1E001C01D92A031B20760
S11300C0E1F75FD10C94A0099BCFCF93DF93CDB719
S11300D0DEB784E290E02FEFFC01208385E290E01C
S11300E0FC0110828AE290E02AE230E0F9012081EA
S11300F02F61FC0120838BE290E02BE230E0F901D8
S11301002081207EFC0120830000DF91CF9108959F
S1130110CF93DF93CDB7DEB785E290E025E230E000
S1130120F90120812068FC0120830000DF91CF9138
S11301300895CF93DF93CDB7DEB785E290E025E253
S113014030E0F90120812F77FC0120830000DF914A
S1130150CF910895CF93DF93CDB7DEB785E290E0DA
S113016025E230E0F90120812064FC0120830000B5
S1130170DF91CF910895CF93DF93CDB7DEB785E2BA
S113018090E025E230E0F90120812F7BFC012083FF
S11301900000DF91CF910895CF93DF93CDB7DEB701
S11301A085E290E025E230E0F90120812062FC0143
S11301B020830000DF91CF910895CF93DF93CDB7D3
S11301C0DEB785E290E025E230E0F90120812F7D61
S11301D0FC0120830000DF91CF910895CF93DF933A
S11301E0CDB7DEB785E290E025E230E0F901208169
S11301F02061FC0120830000DF91CF910895CF930B
S1130200DF93CDB7DEB785E290E025E230E0F90177
S113021020812F7EFC0120830000DF91CF9108957F
S1130220CF93DF93CDB7DEB785E290E025E230E0EF
S1130230F90120812860FC0120830000DF91CF9127
S11302400895CF93DF93CDB7DEB785E290E025E242
S113025030E0F90120812160FC0120830000DF915E
S1130260CF910895CF93DF93CDB7DEB787E290E0C7
S113027027E230E0F90120812B7FFC0120838AE210
S113028090E02AE230E0F90120812F71FC01208303
S113029088E290E028E230E0F90120812460FC014A
S11302A020838BE290E02BE230E0F9012081206E84
S11302B0FC0120830000DF91CF910895CF93DF9359
S11302C000D0CDB7DEB789E290E0FC018081882FB1
S11302D090E09A83898389819A8180789927892BF0
S11302E011F481E001C080E00F900F90DF91CF9175
S11302F00895CF93DF931F92CDB7DEB789E290E0E4
S1130300FC01808189838981882F90E080749927FA
S1130310892B11F481E001C080E00F90DF91CF912F
S11303200895CF93DF931F92CDB7DEB789E290E0B3
S1130330FC01808189838981882F90E080729927CC
S1130340892B11F481E001C080E00F90DF91CF91FF
S11303500895CF93DF931F92CDB7DEB786E290E086
S1130360FC01808189838981882F90E0847099279A
S1130370892B11F481E001C080E00F90DF91CF91CF
S11303800895CF93DF9300D000D0CDB7DEB79DDEC4
S113039069DF43D6789419821B821A8281E08C83A8
S11303A001D0FECF0F931F93CF93DF93CDB7DEB76A
S11303B0C455D1090FB6F894DEBF0FBECDBF8091EE
S11303C0000190910101892B09F002C2A1DE06DF30
S11303D027DF37DF73DF892B09F479C081E090E0F0
S11303E0909301018093000185E290E0FC0110826A
S11303F08FDE80E090E0AAEFB3E48D8B9E8BAF8B11
S1130400B88F20E030E04AE753E46D897E898F8914
S1130410988D0BD7DC01CB01898F9A8FAB8FBC8F62
S113042020E030E040E85FE3698D7A8D8B8D9C8D10
S11304307BD688232CF481E090E09E8F8D8F3BC087
S113044020E03FEF4FE757E4698D7A8D8B8D9C8DCB
S1130450E8D618163CF520E030E040E251E46D891E
S11304607E898F89988DE1D6DC01CB01BC01CD0159
S11304705FD6DC01CB019E8F8D8F0FC089E190E0A8
S113048098A38F8F8F8D98A10197F1F798A38F8FE1
S11304908D8D9E8D01979E8F8D8F8D8D9E8D892B39
S11304A069F713C0698D7A8D8B8D9C8D41D6DC01E3
S11304B0CB019E8F8D8F8D8D9E8D9AA389A389A14B
S11304C09AA10197F1F79AA389A333DE19C311DF27
S11304D0892B09F479C082E090E090930101809324
S11304E0000185E290E0FC01108234DE80E090E0BF
S11304F0AAEFB3E489839A83AB83BC8320E030E022
S11305004AE753E469817A818B819C818ED6DC0130
S1130510CB018BA39CA3ADA3BEA320E030E040E8B5
S11305205FE36BA17CA18DA19EA1FED588232CF451
S113053081E090E098A78FA33BC020E03FEF4FE716
S113054057E46BA17CA18DA19EA16BD618163CF536
S113055020E030E040E251E469817A818B819C8122
S113056064D6DC01CB01BC01CD01E2D5DC01CB01B9
S113057098A78FA30FC089E190E09AA789A789A5BE
S11305809AA50197F1F79AA789A78FA198A5019732
S113059098A78FA38FA198A5892B69F713C06BA186
S11305A07CA18DA19EA1C4D5DC01CB0198A78FA30A
S11305B08FA198A59CA78BA78BA59CA50197F1F764
S11305C09CA78BA7D8DD9CC2ACDE892B09F479C02B
S11305D083E090E0909301018093000185E290E034
S11305E0FC011082D9DD80E090E0AAEFB3E48D83B2
S11305F09E83AF83B88720E030E04AE753E46D81FF
S11306007E818F81988511D6DC01CB018DA79EA7B1
S1130610AFA7B8AB20E030E040E85FE36DA57EA56E
S11306208FA598A981D588232CF481E090E09AAB1A
S113063089AB3BC020E03FEF4FE757E46DA57EA5B3
S11306408FA598A9EED518163CF520E030E040E2DD
S113065051E46D817E818F819885E7D5DC01CB01E2
S1130660BC01CD0165D5DC01CB019AAB89AB0FC0D0
S113067089E190E09CAB8BAB8BA99CA90197F1F726
S11306809CAB8BAB89A99AA901979AAB89AB89A931
S11306909AA9892B69F713C06DA57EA58FA598A982
S11306A047D5DC01CB019AAB89AB89A99AA99EAB4A
S11306B08DAB8DA99EA90197F1F79EAB8DAB7DDD26
S11306C01FC247DE892B09F41BC284E090E090939B
S11306D001018093000185E290E0FC0110827EDD3F
S11306E080E090E0AAEFB3E489879A87AB87BC8760
S11306F020E030E04AE753E469857A858B859C8560
S113070094D5DC01CB018FAB98AFA9AFBAAF20E091
S113071030E040E85FE36FA978AD89AD9AAD04D5C8
S113072088232CF481E090E09CAF8BAF3BC020E0A9
S11307303FEF4FE757E46FA978AD89AD9AAD71D516
S113074018163CF520E030E040E251E469857A85F2
S11307508B859C856AD5DC01CB01BC01CD01E8D435
S1130760DC01CB019CAF8BAF0FC089E190E09EAF61
S11307708DAF8DAD9EAD0197F1F79EAF8DAF8BAD73
S11307809CAD01979CAF8BAF8BAD9CAD892B69F76A
S11307901DC06FA978AD89AD9AADCAD4DC01CB0177
S11307A09CAF8BAF2BAD3CADCE01CF96FC0131831A
S11307B02083CE01CF96FC01808191810197F1F7CE
S11307C09E01215C3F4FF9019183808318DD98C11C
S11307D075DD892B09F475C18CDD892B09F471C190
S11307E0109201011092000180E090E0AAE7B4E4C5
S11307F0898B9A8BAB8BBC8B8E01055B1F4F20E0E2
S113080030E04AE753E469897A898B899C890DD55C
S1130810DC01CB01F80180839183A283B383CE01F1
S1130820855B9F4F20E030E040E85FE3FC0160819E
S113083071818281938178D488234CF4CE01815BC9
S11308409F4F21E030E0FC013183208365C0CE015D
S1130850855B9F4F20E03FEF4FE757E4FC01608149
S1130860718182819381DDD418160CF044C020E09C
S113087030E040E251E469897A898B899C89D5D436
S1130880DC01CB018E01015B1F4FBC01CD0150D4B3
S1130890DC01CB01F8019183808324C0CE018F5AFF
S11308A09F4F29E130E0FC0131832083CE018F5A30
S11308B09F4FFC01808191810197F1F79E012F5A8E
S11308C03F4FF90191838083CE01815B9F4F9E014D
S11308D0215B3F4FF9012081318121503109FC0115
S11308E031832083CE01815B9F4FFC018081918104
S11308F0892BA1F62BC08E01015B1F4FCE01855BB6
S11309009F4FFC01608171818281938111D4DC014C
S1130910CB01F80191838083CE018D5A9F4F9E01B4
S1130920215B3F4FF90120813181FC013183208318
S1130930CE018D5A9F4FFC01808191810197F1F77F
S11309409E012D5A3F4FF9019183808385E290E007
S11309502FEFFC01208380E090E0AAEFB3E48D87C1
S11309609E87AF87B88B8E010F5B1F4F20E030E06E
S11309704AE753E46D857E858F85988956D4DC01DA
S1130980CB01F80180839183A283B383CE018F5B73
S11309909F4F20E030E040E85FE3FC01608171811B
S11309A082819381C1D388234CF4CE018B5B9F4F0A
S11309B021E030E0FC013183208365C0CE018F5BF0
S11309C09F4F20E03FEF4FE757E4FC0160817181C6
S11309D08281938126D418160CF044C020E030E0C4
S11309E040E251E46D857E858F8598891ED4DC01B3
S11309F0CB018E010B5B1F4FBC01CD0199D3DC01F0
S1130A00CB01F8019183808324C0CE01895B9F4F81
S1130A1029E130E0FC0131832083CE01895B9F4FC3
S1130A20FC01808191810197F1F79E01295B3F4F81
S1130A30F90191838083CE018B5B9F4F9E012B5BD9
S1130A403F4FF9012081318121503109FC0131836B
S1130A502083CE018B5B9F4FFC0180819181892B88
S1130A60A1F62BC08E010B5B1F4FCE018F5B9F4FF6
S1130A70FC0160817181828193815AD3DC01CB01B5
S1130A80F80191838083CE01875B9F4F9E012B5B8E
S1130A903F4FF90120813181FC0131832083CE0154
S1130AA0875B9F4FFC01808191810197F1F79E0143
S1130AB0275B3F4FF9019183808385E290E0FC013D
S1130AC0108280910001909101018230910571F0B2
S1130AD0833091051CF4019739F00DC083309105E2
S1130AE039F0049731F007C078D20AC06FD108C03A
S1130AF014D0EFD005C01092010110920001000043
S1130B000000CC5ADF4F0FB6F894DEBF0FBECDBF46
S1130B10DF91CF911F910F910895CF93DF93CDB7BC
S1130B20DEB760970FB6F894DEBF0FBECDBF8091DD
S1130B30020190910301892BF1F0809104019091BD
S1130B400501029774F4109203011092020180913E
S1130B50040190910501019690930501809304018D
S1130B6029C080910401909105010197909305019A
S1130B70809304011FC0809104019091050108979E
S1130B8084F081E090E090930301809302018091CE
S1130B90040190910501019790930501809304014C
S1130BA009C080910401909105010196909305017B
S1130BB08093040181E090E09A8389838091040109
S1130BC0909105019C012150310989819A8102C0CB
S1130BD0880F991F2A95E2F79A83898385E290E02A
S1130BE02981FC01208380E090E0A8E4B3E48B83B6
S1130BF09C83AD83BE8320E030E04AE753E46B81FD
S1130C007C818D819E8111D3DC01CB018F839887F8
S1130C10A987BA8720E030E040E85FE36F817885F8
S1130C2089859A8581D288232CF481E090E09C8781
S1130C308B873BC020E03FEF4FE757E46F81788517
S1130C4089859A85EED218163CF520E030E040E222
S1130C5051E46B817C818D819E81E7D2DC01CB01E3
S1130C60BC01CD0165D2DC01CB019C878B870FC011
S1130C7089E190E09E878D878D859E850197F1F7A8
S1130C809E878D878B859C8501979C878B878B8519
S1130C909C85892B69F713C06F81788589859A852E
S1130CA047D2DC01CB019C878B878B859C85988BF5
S1130CB08F878F8598890197F1F7988B8F8700002C
S1130CC060960FB6F894DEBF0FBECDBFDF91CF9113
S1130CD00895CF93DF9300D000D0CDB7DEB78091D5
S1130CE0060190910701892BC9F4E8DA892BB1F048
S1130CF0809108019091090109974CF480910801B1
S1130D00909109010196909309018093080181E073
S1130D1090E090930701809306011FC080910A011F
S1130D2090910B01892BC9F4E4DA892BB1F08091FD
S1130D30080190910901181619064CF480910801D4
S1130D40909109010197909309018093080181E032
S1130D5090E090930B0180930A01B0DA892B21F47F
S1130D601092070110920601C4DA892B21F4109223
S1130D700B0110920A011A8219821C821B8210C074
S1130D8089819A81880F991F9A83898389819A819D
S1130D9001969A8389838B819C8101969C838B83A2
S1130DA080910801909109012B813C812817390712
S1130DB03CF385E290E02981FC01208300000F9040
S1130DC00F900F900F90DF91CF910895CF93DF9301
S1130DD0CDB7DEB76C970FB6F894DEBF0FBECDBFAC
S1130DE080910C0190910D01892B09F475C010922A
S1130DF00D0110920C0185E290E0FC01108280E06C
S1130E0090E0AAEFB3E48D839E83AF83B88720E09C
S1130E1030E04AE753E46D817E818F81988505D265
S1130E20DC01CB0189879A87AB87BC8720E030E05F
S1130E3040E85FE369857A858B859C8575D1882335
S1130E402CF481E090E09E878D873BC020E03FEF4B
S1130E504FE757E469857A858B859C85E2D118161E
S1130E603CF520E030E040E251E46D817E818F81E9
S1130E709885DBD1DC01CB01BC01CD0159D1DC016A
S1130E80CB019E878D870FC089E190E0988B8F8777
S1130E908F8598890197F1F7988B8F878D859E852B
S1130EA001979E878D878D859E85892B69F78BC0D9
S1130EB069857A858B859C853BD1DC01CB019E8736
S1130EC08D878D859E859A8B898B89899A890197CF
S1130ED0F1F79A8B898B77C081E090E090930D01B4
S1130EE080930C0185E290E02FEFFC01208380E0E9
S1130EF090E0AAEFB3E489839A83AB83BC8320E0B8
S1130F0030E04AE753E469817A818B819C818DD1F9
S1130F10DC01CB018B8B9C8BAD8BBE8B20E030E056
S1130F2040E85FE36B897C898D899E89FDD08823A5
S1130F302CF481E090E0988F8F8B3BC020E03FEF52
S1130F404FE757E46B897C898D899E896AD118168D
S1130F503CF520E030E040E251E469817A818B8104
S1130F609C8163D1DC01CB01BC01CD01E1D0DC016A
S1130F70CB01988F8F8B0FC089E190E09A8F898F76
S1130F80898D9A8D0197F1F79A8F898F8F89988D22
S1130F900197988F8F8B8F89988D892B69F713C050
S1130FA06B897C898D899E89C3D0DC01CB01988FA4
S1130FB08F8B8F89988D9C8F8B8F8B8D9C8D0197B8
S1130FC0F1F79C8F8B8F00006C960FB6F894DEBF00
S1130FD00FBECDBFDF91CF910895CF93DF93CDB7EF
S1130FE0DEB76CD9892B11F093D801C0A2D881D96E
S1130FF0892B11F0AFD801C0BED893D9892B11F039
S1131000CBD801C0DAD8A5D9892B11F0E7D801C013
S1131010F6D80000DF91CF910895CF93DF93CDB739
S1131020DEB704D00000DF91CF910895CF93DF9312
S1131030CDB7DEB785E490E025E430E0F901208106
S1131040277FFC01208384E490E024E430E0F9016C
S113105020812260FC01208384E490E024E430E0D9
S1131060F90120812E7FFC01208387E490E02CE7A6
S1131070FC01208385E490E025E430E0F90120813F
S11310802B7FFC01208385E490E025E430E0F90126
S113109020812260FC01208385E490E025E430E097
S11310A0F90120812E7FFC0120838EE690E02EE65C
S11310B030E0F90120812B7FFC0120838EE690E053
S11310C02EE630E0F90120812260FC0120838EE6C7
S11310D090E02EE630E0F90120812E7FFC01208390
S11310E00000DF91CF9108951F920F9200905F004E
S11310F00F9211248F939F93CF93DF93CDB7DEB7D5
S113110080910E0190910F01019690930F018093AD
S11311100E010000DF91CF919F918F910F9000926B
S11311205F000F901F9018952FD008F481E0089568
S113113057D088F09F5790F0B92F9927B751A0F056
S1131140D1F0660F771F881F991F1AF0BA95C9F757
S113115012C0B13081F05ED0B1E008955BC0672F5A
S1131160782F8827B85F39F0B93FCCF38695779507
S11311706795B395D9F73EF49095809570956195F0
S11311807F4F8F4F9F4F0895990F0008550FAA0B5B
S1131190E0E8FEEF16161706E807F907C0F0121686
S11311A01306E407F50798F0621B730B840B950B89
S11311B039F40A2661F0232B242B252B21F40895DE
S11311C00A2609F4A140A6958FEF811D811D08957B
S11311D057FD9058440F551F59F05F3F71F04795E4
S11311E0880F97FB991F61F09F3F79F087950895C9
S11311F0121613061406551FF2CF4695F1DF08C0E8
S1131200161617061806991FF1CF86957105610504
S113121008940895E894BB2766277727CB0197F9AC
S11312200895B2DF08F48FEF08950BD078C069D029
S113123028F06ED018F0952309F05AC05FC011242D
S1131240EACFC6DFA0F3959FD1F3950F50E0551F69
S1131250629FF001729FBB27F00DB11D639FAA2707
S1131260F00DB11DAA1F649F6627B00DA11D661F56
S1131270829F2227B00DA11D621F739FB00DA11D77
S1131280621F839FA00D611D221F749F3327A00D31
S1131290611D231F849F600D211D822F762F6A2FCD
S11312A011249F5750408AF0E1F088234AF0EE0F52
S11312B0FF1FBB1F661F771F881F91505040A9F75F
S11312C09E3F510570F014C0A6CF5F3FECF3983EEB
S11312D0DCF3869577956795B795F795E7959F5FC6
S11312E0C1F7FE2B880F911D9695879597F9089560
S11312F097F99F6780E870E060E008959FEF80ECC5
S1131300089500240A941616170618060906089567
S113131000240A9412161306140605060895092ECD
S11313200394000C11F4882352F0BB0F40F4BF2B3C
S113133011F460FF04C06F5F7F4F8F4F9F4F08957C
S1071340F894FFCF4B
S9030000FC
