S0170000456D62656464656453797374656D732E737265630B
S113000045C000004BC0000049C0000047C00000CC
S113001045C0000043C0000041C000003FC00000D4
S11300203DC000003BC0000039C0000037C00000E4
S113003035C0000033C0000031C000002FC00000F4
S11300402DC000002BC0000029C0000027C0000004
S113005025C0000023C0000021C000001FC0000014
S11300601DC000001BC0000019C0000017C0000024
S113007015C0000013C0000011C000000FC0000034
S11300800DC000000BC0000009C0000011241FBEF9
S1130090CFEFD0E4DEBFCDBFAED0CCC0B1CFCF93D5
S11300A0DF93CDB7DEB784E290E02FEFFC0120832D
S11300B00000DF91CF910895CF93DF93CDB7DEB7E2
S11300C085E290E025E230E0F90120812068FC011E
S11300D020830000DF91CF910895CF93DF93CDB7B4
S11300E0DEB785E290E025E230E0F90120812F7748
S11300F0FC0120830000DF91CF910895CF93DF931B
S1130100CDB7DEB787E290E027E230E0F901208145
S11301102460FC0120838AE290E02AE230E0F901C5
S11301202081206EFC0120830000DF91CF9108958F
S1130130CF93DF9300D0CDB7DEB789E290E0FC0126
S11301408081882F90E09A83898389819A8180783D
S11301509927892B11F480E001C081E00F900F9062
S1130160DF91CF910895CF93DF931F92CDB7DEB780
S113017089E290E0FC01808189838981882F90E065
S113018080749927892B11F480E001C081E00F90DD
S1130190DF91CF910895CF93DF931F92CDB7DEB750
S11301A089E290E0FC01808189838981882F90E035
S11301B080729927892B11F480E001C081E00F90AF
S11301C0DF91CF910895CF93DF931F92CDB7DEB720
S11301D086E290E0FC01808189838981882F90E008
S11301E084709927892B11F480E001C081E00F907D
S11301F0DF91CF910895CF93DF9300D000D000D04A
S1130200CDB7DEB77BDF4BDF93DF882311F054DFFC
S113021001C063DFA8DF882311F01A821982BBDFD3
S1130220882311F01C821B82CEDF882369F31E828F
S10B02301D82EACFF894FFCF10
S9030000FC
