S0170000456D62656464656453797374656D732E737265630B
S113000045C0000060C000005EC000005CC000008D
S11300105AC0000058C0000056C0000054C0000080
S113002052C0000050C000004EC000004CC0000090
S11300304AC0000048C0000046C0000044C00000A0
S11300404CC1000040C000003EC000003CC00000A5
S11300503AC0000038C0000036C0000034C00000C0
S113006032C0000030C000002EC000002CC00000D0
S11300702AC0000028C0000026C0000024C00000E0
S113008022C0000020C000001EC0000011241FBEBA
S1130090CFEFD0E4DEBFCDBF11E0A0E0B1E0EAE8ED
S11300A0F3E000E00BBF02C007900D92A030B1074F
S11300B0D9F721E0A0E0B1E001C01D92A230B2075F
S11300C0E1F757D060C19CCFCF93DF931F92CDB798
S11300D0DEB7898384E290E02FEFFC01208385E280
S11300E090E0FC0110828981882391F08AE290E0FB
S11300F02AE230E0F90120812F61FC0120838BE2A8
S113010090E02BE230E0F9012081207EFC01208385
S113011000000F90DF91CF910895CF93DF93CDB777
S1130120DEB787E290E027E230E0F90120812B7FFF
S1130130FC0120838AE290E02AE230E0F901208188
S11301402F71FC01208388E290E028E230E0F9017D
S113015020812460FC0120838BE290E02BE230E0DC
S1130160F9012081206EFC0120830000DF91CF91F2
S113017008950F931F93CF93DF9300D000D0CDB792
S1130180DEB7F89480E0A0DFC8DF80E10FD080E81C
S113019095E2C3D0789419821B821A8281E08C8301
S11301A005E210E0DED0F8018083FACFCF93DF932D
S11301B01F92CDB7DEB789838981882F90E005D05F
S11301C000000F90DF91CF910895CF93DF931F929A
S11301D0CDB7DEB7898385E490E025E430E0F9010A
S11301E02081277FFC01208384E490E024E430E034
S11301F0F90120812260FC01208384E490E024E45E
S113020030E0F90120812E7FFC0120838981882F31
S113021090E0409709F587E490E029EFFC01208302
S113022085E490E025E430E0F90120812B7FFC0196
S1130230208385E490E025E430E0F9012081226008
S1130240FC01208385E490E025E430E0F90120817D
S11302502160FC01208321C087E490E02CE7FC01AD
S1130260208385E490E025E430E0F90120812B7FB0
S1130270FC01208385E490E025E430E0F90120814D
S11302802260FC01208385E490E025E430E0F9015C
S113029020812E7FFC01208300008EE690E02EE674
S11302A030E0F90120812B7FFC0120838EE690E071
S11302B02EE630E0F90120812260FC0120838EE6E5
S11302C090E02EE630E0F90120812E7FFC012083AE
S11302D000000F90DF91CF9108951F920F9200902C
S11302E05F000F9211248F939F93CF93DF93CDB729
S11302F0DEB7809100019091010101969093010174
S1130300809300010000DF91CF919F918F910F9016
S113031000925F000F901F901895CF93DF9300D049
S1130320CDB7DEB79A83898385EC90E029813A8141
S1130330232F3327FC01208384EC90E02981FC01E6
S1130340208381EC90E028E1FC01208382EC90E0A2
S113035026E0FC01208300000F900F90DF91CF91E5
S11303600895CF93DF93CDB7DEB7000080EC90E023
S1130370FC0180818823D4F786EC90E0FC01808125
S10D0380DF91CF910895F894FFCFA8
S9030000FC
