S0170000456D62656464656453797374656D732E737265630B
S113000033C0000041C000003FC000003DC00000FC
S11300103BC0000039C0000037C0000035C00000FC
S113002033C0000031C000002FC000002DC000000C
S11300302BC0000029C0000027C0000025C000001C
S113004023C0000021C000001FC000001DC000002C
S11300501BC0000019C0000017C0000015C000003C
S113006013C0000011C0000011241FBECFEFD8E060
S1130070DEBFCDBF21E0A0E0B1E001C01D92A630FB
S1130080B207E1F726D118C4BBCFCF93DF93CDB726
S1130090DEB784E290E02FEFFC0120830000DF91C3
S11300A0CF910895CF93DF93CDB7DEB785E290E08B
S11300B025E230E0F90120812068FC012083000062
S11300C0DF91CF910895CF93DF93CDB7DEB785E26B
S11300D090E025E230E0F90120812F77FC012083B4
S11300E00000DF91CF910895CF93DF93CDB7DEB7B2
S11300F085E290E025E230E0F90120812064FC01F2
S113010020830000DF91CF910895CF93DF93CDB783
S1130110DEB785E290E025E230E0F90120812F7B13
S1130120FC0120830000DF91CF910895CF93DF93EA
S1130130CDB7DEB785E290E025E230E0F901208119
S11301402062FC0120830000DF91CF910895CF93BA
S1130150DF93CDB7DEB785E290E025E230E0F90128
S113016020812F7DFC0120830000DF91CF91089531
S1130170CF93DF93CDB7DEB785E290E025E230E0A0
S1130180F90120812061FC0120830000DF91CF91DF
S11301900895CF93DF93CDB7DEB785E290E025E2F3
S11301A030E0F90120812F7EFC0120830000DF91E3
S11301B0CF910895CF93DF93CDB7DEB787E290E078
S11301C027E230E0F90120812470FC0120838AE2D7
S11301D090E02AE230E0F90120812F71FC012083B4
S11301E088E290E028E230E0F90120812460FC01FB
S11301F020838BE290E02BE230E0F9012081206E35
S1130200FC0120830000DF91CF910895CF93DF9309
S113021000D0CDB7DEB789E290E0FC018081882F61
S113022090E09A83898389819A8180789927892BA0
S113023011F481E001C080E00F900F90DF91CF9125
S11302400895CF93DF931F92CDB7DEB789E290E094
S1130250FC01808189838981882F90E080749927AB
S1130260892B11F481E001C080E00F90DF91CF91E0
S11302700895CF93DF931F92CDB7DEB789E290E064
S1130280FC01808189838981882F90E0807299277D
S1130290892B11F481E001C080E00F90DF91CF91B0
S11302A00895CF93DF931F92CDB7DEB786E290E037
S11302B0FC01808189838981882F90E0847099274B
S11302C0892B11F481E001C080E00F90DF91CF9180
S11302D00895CF93DF93CDB7DEB7D7DE6BDF01D0C0
S11302E0FECFCF93DF93CDB7DEB78091000190911D
S11302F00101892B41F58ADF892B39F081E090E0F7
S1130300909301018093000147C09BDF892B39F052
S113031082E090E090930101809300013DC0A9DF49
S1130320892B39F083E090E09093010180930001E0
S113033033C0B7DF892B81F184E090E09093010111
S11303408093000129C062DF892B39F07ADF892B81
S113035021F010920101109200018091000190910E
S113036001018230910571F0833091051CF40197ED
S113037039F00DC08330910539F0049731F007C08E
S11303806FD10AC066D008C00BD012D005C010923D
S113039001011092000100000000DF91CF91089547
S11303A0CF93DF93CDB7DEB70000DF91CF910895EF
S11303B0CF93DF9300D000D0CDB7DEB727DF892BF2
S11303C051F08091020190910301019690930301F1
S11303D08093020113C035DF892B81F080910201E3
S11303E090910301181619064CF480910201909122
S11303F00301019790930301809302011A821982E9
S11304001C821B8210C089819A81880F991F9A834C
S1130410898389819A8101969A8389838B819C81BE
S113042001969C838B8380910201909103012B811F
S11304303C81281739073CF385E290E02981FC01CF
S1130440208300000F900F900F900F90DF91CF91B9
S11304500895CF93DF93CDB7DEB76C970FB6F894BA
S1130460DEBF0FBECDBF8091040190910501892BA1
S113047009F475C0109205011092040185E290E020
S1130480FC01108280E090E0AAEFB3E48D839E83A8
S1130490AF83B88720E030E04AE753E46D817E8182
S11304A08F8198857ED1DC01CB0189879A87AB87C0
S11304B0BC8720E030E040E85FE369857A858B857E
S11304C09C85EED088232CF481E090E09E878D8774
S11304D03BC020E03FEF4FE757E469857A858B8581
S11304E09C855BD118163CF520E030E040E251E4F5
S11304F06D817E818F81988554D1DC01CB01BC0153
S1130500CD01D2D0DC01CB019E878D870FC089E15C
S113051090E0988B8F878F8598890197F1F7988B56
S11305208F878D859E8501979E878D878D859E8576
S1130530892B69F78BC069857A858B859C85B4D0B6
S1130540DC01CB019E878D878D859E859A8B898B57
S113055089899A890197F1F79A8B898B77C081E011
S113056090E0909305018093040185E290E02FEFE1
S1130570FC01208380E090E0AAEFB3E489839A83AE
S1130580AB83BC8320E030E04AE753E469817A819D
S11305908B819C8106D1DC01CB018B8B9C8BAD8B39
S11305A0BE8B20E030E040E85FE36B897C898D8975
S11305B09E8976D088232CF481E090E0988F8F8BED
S11305C03BC020E03FEF4FE757E46B897C898D897E
S11305D09E89E3D018163CF520E030E040E251E477
S11305E069817A818B819C81DCD0DC01CB01BC01E7
S11305F0CD015AD0DC01CB01988F8F8B0FC089E1DC
S113060090E09A8F898F898D9A8D0197F1F79A8F4F
S1130610898F8F89988D0197988F8F8B8F89988D6B
S1130620892B69F713C06B897C898D899E893CD09D
S1130630DC01CB01988F8F8B8F89988D9C8F8B8F4A
S11306408B8D9C8D0197F1F79C8F8B8F00006C969E
S11306500FB6F894DEBF0FBECDBFDF91CF910895E2
S1130660CF93DF93CDB7DEB7D1DD892B11F01ADD3F
S113067001C029DDE6DD892B11F036DD01C045DD41
S1130680F8DD892B11F052DD01C061DD0ADE892B12
S113069011F06EDD01C07DDD0000DF91CF91089582
S11306A02FD008F481E0089557D088F09F5790F038
S11306B0B92F9927B751A0F0D1F0660F771F881F83
S11306C0991F1AF0BA95C9F712C0B13081F05ED003
S11306D0B1E008955BC0672F782F8827B85F39F0A1
S11306E0B93FCCF3869577956795B395D9F73EF4E2
S11306F090958095709561957F4F8F4F9F4F08958A
S1130700990F0008550FAA0BE0E8FEEF161617061E
S1130710E807F907C0F012161306E407F50798F086
S1130720621B730B840B950B39F40A2661F0232B9F
S1130730242B252B21F408950A2609F4A140A6951B
S11307408FEF811D811D089557FD9058440F551F4B
S113075059F05F3F71F04795880F97FB991F61F03F
S11307609F3F79F087950895121613061406551FB6
S1130770F2CF4695F1DF08C0161617061806991F22
S1130780F1CF86957105610508940895E894BB2717
S113079066277727CB0197F90895B2DF08F48FEF26
S11307A008950BD078C069D028F06ED018F0952346
S11307B009F05AC05FC01124EACFC6DFA0F3959FA9
S11307C0D1F3950F50E0551F629FF001729FBB2734
S11307D0F00DB11D639FAA27F00DB11DAA1F649FE0
S11307E06627B00DA11D661F829F2227B00DA11D93
S11307F0621F739FB00DA11D621F839FA00D611D19
S1130800221F749F3327A00D611D231F849F600D39
S1130810211D822F762F6A2F11249F5750408AF072
S1130820E1F088234AF0EE0FFF1FBB1F661F771FFE
S1130830881F91505040A9F79E3F510570F014C095
S1130840A6CF5F3FECF3983EDCF3869577956795EA
S1130850B795F795E7959F5FC1F7FE2B880F911D1C
S11308609695879597F9089597F99F6780E870E0C2
S113087060E008959FEF80EC089500240A94161612
S1130880170618060906089500240A94121613067A
S1130890140605060895092E0394000C11F4882308
S11308A052F0BB0F40F4BF2B11F460FF04C06F5F24
S10F08B07F4F8F4F9F4F0895F894FFCFA7
S9030000FC
