S0170000456D62656464656453797374656D732E737265630B
S113000045C000004BC0000049C0000047C00000CC
S113001045C0000043C0000041C000003FC00000D4
S11300203DC000003BC0000039C0000037C00000E4
S113003035C0000033C0000031C000002FC00000F4
S11300402DC000002BC0000029C0000027C0000004
S113005025C0000023C0000021C000001FC0000014
S11300601DC000001BC0000019C0000017C0000024
S113007015C0000013C0000011C000000FC0000034
S11300800DC000000BC0000009C0000011241FBEF9
S1130090CFEFD0E4DEBFCDBF26D02CC0B1CF8FEFE1
S11300A084B908953A9A8AB1806E8AB9089589B15B
S11300B089B18095881F8827881F089589B186FB98
S11300C0882780F991E08927089589B185FB8827DD
S11300D080F991E08927089586B182FB882780F909
S11300E091E089270895DEDFDADFE1DFE7DFEDDF86
S10B00F0F3DFFBCFF894FFCF0E
S9030000FC
