S0170000456D62656464656453797374656D732E737265630B
S113000033C0000041C000003FC000003DC00000FC
S11300103BC0000039C0000037C0000035C00000FC
S113002033C0000031C000002FC000002DC000000C
S11300302BC0000029C0000027C0000025C000001C
S11300407CC0000021C000001FC000001DC00000D3
S11300501BC0000019C0000017C0000015C000003C
S113006013C0000011C0000011241FBECFEFD8E060
S1130070DEBFCDBF21E0A0E0B1E001C01D92A230FF
S1130080B207E1F73FD09BC0BBCFCF93DF93CDB78F
S1130090DEB784E290E02FEFFC01208385E290E05C
S11300A0FC0110820000DF91CF910895CF93DF937C
S11300B0CDB7DEB787E290E027E230E0F901208196
S11300C02B7FFC0120838AE290E02AE230E0F901F0
S11300D020812F71FC01208388E290E028E230E047
S11300E0F90120812460FC0120838BE290E02BE263
S11300F030E0F9012081206EFC0120830000DF91B3
S1130100CF910895CF93DF9300D0CDB7DEB7BDDF95
S1130110CDDF33D078941A82198285E090E09A83F7
S113012089838091000190910101893E9340A8F355
S11301301092010110920001F0CF1F920F920090D3
S11301405F000F9211248F939F93CF93DF93CDB7CA
S1130150DEB7809100019091010101969093010115
S1130160809300010000DF91CF919F918F910F90B8
S113017000925F000F901F901895CF93DF93CDB737
S1130180DEB784E490E0FC01108285E490E0FC0199
S1130190108285E490E025E430E0F90120812160BB
S11301A0FC0120838EE690E02EE630E0F901208108
S11301B02160FC0120830000DF91CF910895F89421
S10501C0FFCF6B
S9030000FC
