S0170000456D62656464656453797374656D732E737265630B
S113000045C0000060C000005EC000005CC000008D
S11300105AC0000058C0000056C0000054C0000080
S113002052C0000050C000004EC000004CC0000090
S11300304AC0000048C0000046C0000044C00000A0
S113004069C2000040C000003EC000003CC0000087
S113005026C40000DBC3000036C0000034C000002A
S113006032C0000030C000002EC000002CC00000D0
S11300702AC0000028C0000026C0000024C00000E0
S113008022C0000020C000001EC0000011241FBEBA
S1130090CFEFD0E4DEBFCDBF11E0A0E0B1E0EAEDE8
S11300A0FEE000E00BBF02C007900D92A235B1073D
S11300B0D9F725E0A2E5B1E001C01D92AC35B20745
S11300C0E1F7DFD008C79CCFCF93DF931F92CDB762
S11300D0DEB7898384E290E02FEFFC01208385E280
S11300E090E0FC0110828981882391F08AE290E0FB
S11300F02AE230E0F90120812F61FC0120838BE2A8
S113010090E02BE230E0F9012081207EFC01208385
S113011000000F90DF91CF910895CF93DF93CDB777
S1130120DEB785E290E025E230E0F9012081206825
S1130130FC0120830000DF91CF910895CF93DF93DA
S1130140CDB7DEB785E290E025E230E0F901208109
S11301502F77FC0120830000DF91CF910895CF9386
S1130160DF93CDB7DEB785E290E025E230E0F90118
S113017020812064FC0120830000DF91CF91089549
S1130180CF93DF93CDB7DEB785E290E025E230E090
S1130190F90120812F7BFC0120830000DF91CF91A6
S11301A00895CF93DF93CDB7DEB785E290E025E2E3
S11301B030E0F90120812062FC0120830000DF91FE
S11301C0CF910895CF93DF93CDB7DEB785E290E06A
S11301D025E230E0F90120812F7DFC01208300001D
S11301E0DF91CF910895CF93DF93CDB7DEB785E24A
S11301F090E025E230E0F90120812061FC012083B8
S11302000000DF91CF910895CF93DF93CDB7DEB790
S113021085E290E025E230E0F90120812F7EFC01A7
S113022020830000DF91CF910895CF93DF93CDB762
S1130230DEB787E290E027E230E0F90120812B7FEE
S1130240FC0120838AE290E02AE230E0F901208177
S11302502F71FC01208388E290E028E230E0F9016C
S113026020812460FC0120838BE290E02BE230E0CB
S1130270F9012081206EFC0120830000DF91CF91E1
S11302800895CF93DF93CDB7DEB7C857D1090FB622
S1130290F894DEBF0FBECDBFF89480E015DFC5DF54
S11302A080E1A1D036D278941C821B8222E3CE0155
S11302B00696FC01322F11923A95E9F71A821982B7
S11302C00FC09E012A5F3F4F89819A81820F931F3D
S11302D02D81FC01208389819A8101969A838983E7
S11302E082D28D838D81882321F089819A81C1975F
S11302F044F389819A8101969E012A5F3F4F820FC0
S1130300931FFC01108289819A81181619060CF03A
S113031067C08E81882F90E082339105E9F08333A2
S113032091051CF4C19739F03EC08333910509F15E
S1130330C49761F138C08F81813329F4EEDE80E007
S113034091E002D24CC08F81803309F048C0F6DEC0
S113035088E091E0F9D143C08F81813329F4FFDE35
S113036081E191E0F1D13CC00BDF89E191E0ECD176
S113037037C08F81813329F414DF82E291E0E4D124
S11303802FC020DF8AE291E0DFD12AC08F81813340
S113039029F429DF83E391E0D7D122C035DF8BE351
S11303A091E0D2D11DC0CE010696292F2F938F93B1
S11303B084E491E0892F8F9384E491E08F93CE01BC
S11303C0C896292F2F938F93ABD20F900F900F9035
S11303D00F900F900F90CE01C896B6D101C00000C7
S11303E01A8219826DCFCF93DF931F92CDB7DEB7F8
S11303F089838981882F90E005D000000F90DF91D8
S1130400CF910895CF93DF931F92CDB7DEB7898341
S113041085E490E025E430E0F9012081277FFC01A8
S1130420208384E490E024E430E0F9012081226018
S1130430FC01208384E490E024E430E0F90120818D
S11304402E7FFC0120838981882F90E0409709F555
S113045087E490E029EFFC01208385E490E025E423
S113046030E0F90120812B7FFC01208385E490E0BA
S113047025E430E0F90120812260FC01208385E439
S113048090E025E430E0F90120812160FC01208323
S113049021C087E490E02CE7FC01208385E490E010
S11304A025E430E0F90120812B7FFC01208385E4E1
S11304B090E025E430E0F90120812260FC012083F2
S11304C085E490E025E430E0F90120812E7FFC01F1
S11304D0208300008EE690E02EE630E0F9012081D2
S11304E02B7FFC0120838EE690E02EE630E0F901BC
S11304F020812260FC0120838EE690E02EE630E02D
S1130500F90120812E7FFC01208300000F90DF91F0
S1130510CF9108951F920F9200905F000F921124C3
S11305208F939F93CF93DF93CDB7DEB78091520122
S113053090915301019690935301809352010000CE
S1130540DF91CF919F918F910F9000925F000F9058
S11305501F901895CF93DF9300D01F92CDB7DEB7CD
S113056089837B836A838A819B818E5F9D4FFC0193
S1130570808191819C012F5F3F4F8A819B819E5F87
S1130580FC01808191812817390791F08A819B8130
S11305909E5FFC0180819181892B61F48A819B811A
S11305A08E5F9D4FFC01808191818F3F914011F4BA
S11305B081E031C08A819B818E5F9D4FFC018081E7
S11305C091812A813B81820F931F2981FC01208321
S11305D08A819B818E5F9D4FFC01808191819C016A
S11305E02F5F3F4F8A819B818E5F9D4FFC0131833A
S11305F020838A819B818E5F9D4FFC018081918144
S11306008115924038F08A819B818E5F9D4FFC0159
S11306101182108280E00F900F900F90DF91CF91A4
S11306200895CF93DF9300D000D0CDB7DEB79A837F
S113063089837C836B838B819C819E5FFC012081F9
S113064031818B819C818E5F9D4FFC0180819181E2
S11306502817390711F481E02FC08B819C819E5F9C
S1130660FC01808191812B813C81820F931FFC01CD
S1130670208189819A81FC0120838B819C819E5FEA
S1130680FC01808191819C012F5F3F4F8B819C8174
S11306909E5FFC01318320838B819C819E5FFC01E2
S11306A0808191818115924030F08B819C819E5F85
S11306B0FC011182108280E00F900F900F900F9038
S11306C0DF91CF910895CF93DF9300D0CDB7DEB7FC
S11306D087E690E09A83898385EC90E029813A81CA
S11306E0232F3327FC01208384EC90E02981FC0133
S11306F0208381EC90E028E1FC01208382EC90E0EF
S113070026E0FC01208300000F900F90DF91CF9131
S11307100895CF93DF93CDB7DEB7D5DF81EC90E0BA
S113072021EC30E0F90120812062FC01208381EC7E
S113073090E021EC30E0F90120812068FC01208365
S11307400000DF91CF910895CF93DF9300D000D0C4
S113075000D0CDB7DEB79E838D838D819E81D7D0A7
S11307609C838B831A82198223C089819A812D816B
S11307703E81820F931FFC01808164E571E0EADE13
S1130780813089F480EC90E020EC30E0F9012081A4
S11307902062FC01208389819A819C012F5F3F4F55
S11307A03A83298317C089819A8101969A83898320
S11307B029813A818B819C8128173907B4F280EC16
S11307C090E020EC30E0F90120812062FC012083DC
S11307D080E090E026960FB6F894DEBF0FBECDBF42
S11307E0DF91CF910895CF93DF931F92CDB7DEB7FA
S11307F068E573E0CE01019614DF882311F4898142
S113080001C080E00F90DF91CF9108951F920F9265
S113081000905F000F92112400905B000F922F93C1
S11308203F934F935F936F937F938F939F93AF9374
S1130830BF93EF93FF93CF93DF931F92CDB7DEB7B0
S113084064E571E0CE010196ECDE882331F486EC98
S113085090E02981FC01208309C080EC90E020EC29
S113086030E0F90120812F7DFC01208300000F90EE
S1130870DF91CF91FF91EF91BF91AF919F918F91B4
S11308807F916F915F914F913F912F910F900092C3
S11308905B000F9000925F000F901F9018951F92BD
S11308A00F9200905F000F92112400905B000F9252
S11308B02F933F934F935F936F937F938F939F9364
S11308C0AF93BF93EF93FF93CF93DF93CDB7DEB78F
S11308D086EC90E0FC01808168E573E03BDE00007B
S11308E0DF91CF91FF91EF91BF91AF919F918F9144
S11308F07F916F915F914F913F912F910F90009253
S11309005B000F9000925F000F901F901895FC0100
S113091001900020E9F7809590958E0F9F1F089510
S11309200F931F93CF93DF93CDB7DEB72E970FB6F8
S1130930F894DEBF0FBECDBF0D891E8986E08C837F
S11309401A8309838FEF9FE79E838D83AE01475EF1
S11309505F4F6F89788DCE01019610D0EF81F885B5
S1130960E00FF11F10822E960FB6F894DEBF0FBE73
S1130970CDBFDF91CF911F910F9108952F923F9298
S11309804F925F926F927F928F929F92AF92BF929B
S1130990CF92DF92EF92FF920F931F93CF93DF9347
S11309A0CDB7DEB72B970FB6F894DEBF0FBECDBF21
S11309B06C017B018A01FC0117821682838181FF0D
S11309C0BFC1CE0101963C01F6019381F70193FD6D
S11309D0859193FF81917F01882309F4ADC185320C
S11309E039F493FD859193FF81917F01853221F440
S11309F0B60190E0D6D1E8CF912C212C312CFFE127
S1130A00F315D8F08B3279F038F4803279F08332F0
S1130A10A1F4232D20611DC08D3261F0803369F46F
S1130A20232D216016C0832D8260382EE32DE460CF
S1130A303E2E2AC0F32DF8601DC037FC2DC020EDDA
S1130A40280F2A3040F08E32B9F436FC75C1232DBC
S1130A502064322E19C036FE06C08AE0989E200D0E
S1130A601124922E11C0EAE02E9E200D1124222E74
S1130A70F32DF0623F2E08C08C3621F4832D80685C
S1130A80382E02C0883641F4F70193FD859193FF17
S1130A9081917F018111B3CF982F9F7D955493301D
S1130AA028F40C5F1F4F9FE399830DC0833631F008
S1130AB0833771F0833509F055C020C0F801808177
S1130AC089830E5F1F4F88248394912C530112C095
S1130AD02801F2E04F0E511CF801A080B18036FECF
S1130AE003C0692D70E002C06FEF7FEFC5014ED1E6
S1130AF04C018201F32DFF773F2E15C0280122E01F
S1130B00420E511CF801A080B18036FE03C0692D4D
S1130B1070E002C06FEF7FEFC5012DD14C01F32DC2
S1130B20F0683F2E820133FC19C0822D90E08816B4
S1130B309906A0F4B60180E290E033D12A94F5CF6F
S1130B40F50137FC859137FE81915F01B60190E094
S1130B5028D121102A9421E0821A91088114910449
S1130B6079F7E1C0843611F0893639F5F80137FE9A
S1130B7007C060817181828193810C5F1F4F08C01F
S1130B8060817181072E000C880B990B0E5F1F4F3B
S1130B90F32DFF763F2E97FF09C0909580957095B1
S1130BA061957F4F8F4F9F4FF0683F2E2AE030E0D2
S1130BB0A30133D1882E861844C0853731F4232D00
S1130BC02F7EB22E2AE030E025C0932D997FB92ED6
S1130BD08F36C1F018F4883579F0AEC0803719F03B
S1130BE0883721F0A9C0E92FE061BE2EB4FE0DC004
S1130BF0FB2DF460BF2E09C034FE0AC0292F2660E5
S1130C00B22E06C028E030E005C020E130E002C08A
S1130C1020E132E0F801B7FE07C060817181828172
S1130C2093810C5F1F4F06C06081718180E090E06A
S1130C300E5F1F4FA301F1D0882E8618FB2DFF777E
S1130C403F2E36FE0DC0232D2E7FA22E891458F47C
S1130C5034FE0BC032FC09C0832D8E7EA82E05C045
S1130C60B82CA32C03C0B82C01C0B92CA4FE0FC00F
S1130C70FE01E80DF11D8081803321F49A2D997EC7
S1130C80A92E09C0A2FE06C0B394B39404C08A2D51
S1130C90867809F0B394A3FC10C0A0FE06C0B21479
S1130CA080F4280C922C9B180DC0B21458F4B60191
S1130CB080E290E076D0B394F8CFB21418F42B18F5
S1130CC002C0982C212CA4FE0FC0B60180E390E052
S1130CD068D0A2FE16C0A1FC03C088E790E002C061
S1130CE088E590E0B6010CC08A2D867851F0A1FE0B
S1130CF002C08BE201C080E2A7FC8DE2B60190E065
S1130D0050D0891430F4B60180E390E04AD09A942C
S1130D10F8CF8A94F301E80DF11D8081B60190E0CB
S1130D2040D08110F6CF222009F44ECEB60180E2E5
S1130D3090E037D02A94F7CFF6018681978102C0DC
S1130D408FEF9FEF2B960FB6F894DEBF0FBECDBF8B
S1130D50DF91CF911F910F91FF90EF90DF90CF9093
S1130D60BF90AF909F908F907F906F905F904F90C7
S1130D703F902F900895FC01059061507040011040
S1130D80D8F7809590958E0F9F1F0895FC016150B0
S1130D90704001900110D8F7809590958E0F9F1F99
S1130DA008950F931F93CF93DF93FB01238121FDBC
S1130DB003C08FEF9FEF2CC022FF16C046815781DE
S1130DC0248135814217530744F4A081B1819D01E8
S1130DD02F5F3F4F318320838C93268137812F5F90
S1130DE03F4F3783268314C08B01EC01FB01008441
S1130DF0F185E02D0995892BE1F6D80116968D91A0
S1130E009C911797019617969C938E931697CE01F3
S1130E10DF91CF911F910F910895FA01AA272830ED
S1130E2051F1203181F1E8946F936E7F6E5F7F4FB3
S1130E308F4F9F4FAF4FB1E03ED0B4E03CD0670F2F
S1130E40781F891F9A1FA11D680F791F8A1F911D82
S1130E50A11D6A0F711D811D911DA11D20D009F4D2
S1130E6068943F912AE0269F11243019305D319314
S1130E70DEF6CF010895462F4770405D4193B3E0FD
S1130E800FD0C9F7F6CF462F4F70405D4A3318F0A4
S1130E90495D31FD4052419302D0A9F7EACFB4E055
S1130EA0A6959795879577956795BA95C9F700970D
S1130EB06105710508959B01AC010A2E06945795AE
S1130EC0479537952795BA95C9F7620F731F841F05
S10D0ED0951FA01D0895F894FFCFAC
S1130EDA4C656431204F6E004C656431204F666660
S1130EEA004C656432204F6E004C656432204F66B4
S1130EFA66004C656433204F6E004C656433204FA2
S1130F0A6666004C656434204F6E004C6564342078
S1130F1A4F66660052656365697665643A2025738F
S1050F2A0A00B7
S9030000FC
